{
  "_format": "hh-sol-artifact-1",
  "contractName": "FileMarketplace",
  "sourceName": "contracts/FileMarketplace.sol",
  "abi": [
    {
      "anonymous": false,
      "inputs": [
        {
          "indexed": true,
          "internalType": "uint256",
          "name": "id",
          "type": "uint256"
        },
        {
          "indexed": false,
          "internalType": "string",
          "name": "title",
          "type": "string"
        },
        {
          "indexed": false,
          "internalType": "uint256",
          "name": "price",
          "type": "uint256"
        }
      ],
      "name": "FileListed",
      "type": "event"
    },
    {
      "anonymous": false,
      "inputs": [
        {
          "indexed": true,
          "internalType": "uint256",
          "name": "id",
          "type": "uint256"
        },
        {
          "indexed": false,
          "internalType": "address",
          "name": "buyer",
          "type": "address"
        }
      ],
      "name": "FileSold",
      "type": "event"
    },
    {
      "inputs": [
        {
          "internalType": "uint256",
          "name": "_id",
          "type": "uint256"
        }
      ],
      "name": "buyFile",
      "outputs": [],
      "stateMutability": "payable",
      "type": "function"
    },
    {
      "inputs": [
        {
          "internalType": "uint256",
          "name": "",
          "type": "uint256"
        }
      ],
      "name": "files",
      "outputs": [
        {
          "internalType": "uint256",
          "name": "id",
          "type": "uint256"
        },
        {
          "internalType": "uint256",
          "name": "price",
          "type": "uint256"
        },
        {
          "internalType": "address",
          "name": "author",
          "type": "address"
        },
        {
          "internalType": "string",
          "name": "title",
          "type": "string"
        },
        {
          "internalType": "string",
          "name": "link",
          "type": "string"
        }
      ],
      "stateMutability": "view",
      "type": "function"
    },
    {
      "inputs": [],
      "name": "getBoughtFiles",
      "outputs": [
        {
          "components": [
            {
              "internalType": "uint256",
              "name": "id",
              "type": "uint256"
            },
            {
              "internalType": "uint256",
              "name": "price",
              "type": "uint256"
            },
            {
              "internalType": "address",
              "name": "author",
              "type": "address"
            },
            {
              "internalType": "address[]",
              "name": "buyers",
              "type": "address[]"
            },
            {
              "internalType": "string",
              "name": "title",
              "type": "string"
            },
            {
              "internalType": "string",
              "name": "link",
              "type": "string"
            }
          ],
          "internalType": "struct FileMarketplace.File[]",
          "name": "",
          "type": "tuple[]"
        }
      ],
      "stateMutability": "view",
      "type": "function"
    },
    {
      "inputs": [],
      "name": "getFiles",
      "outputs": [
        {
          "components": [
            {
              "internalType": "uint256",
              "name": "id",
              "type": "uint256"
            },
            {
              "internalType": "uint256",
              "name": "price",
              "type": "uint256"
            },
            {
              "internalType": "address",
              "name": "author",
              "type": "address"
            },
            {
              "internalType": "address[]",
              "name": "buyers",
              "type": "address[]"
            },
            {
              "internalType": "string",
              "name": "title",
              "type": "string"
            },
            {
              "internalType": "string",
              "name": "link",
              "type": "string"
            }
          ],
          "internalType": "struct FileMarketplace.File[]",
          "name": "",
          "type": "tuple[]"
        }
      ],
      "stateMutability": "view",
      "type": "function"
    },
    {
      "inputs": [],
      "name": "getOwnedFiles",
      "outputs": [
        {
          "components": [
            {
              "internalType": "uint256",
              "name": "id",
              "type": "uint256"
            },
            {
              "internalType": "uint256",
              "name": "price",
              "type": "uint256"
            },
            {
              "internalType": "address",
              "name": "author",
              "type": "address"
            },
            {
              "internalType": "address[]",
              "name": "buyers",
              "type": "address[]"
            },
            {
              "internalType": "string",
              "name": "title",
              "type": "string"
            },
            {
              "internalType": "string",
              "name": "link",
              "type": "string"
            }
          ],
          "internalType": "struct FileMarketplace.File[]",
          "name": "",
          "type": "tuple[]"
        }
      ],
      "stateMutability": "view",
      "type": "function"
    },
    {
      "inputs": [
        {
          "internalType": "string",
          "name": "_title",
          "type": "string"
        },
        {
          "internalType": "uint256",
          "name": "_price",
          "type": "uint256"
        },
        {
          "internalType": "string",
          "name": "_arweaveURI",
          "type": "string"
        }
      ],
      "name": "listFile",
      "outputs": [],
      "stateMutability": "nonpayable",
      "type": "function"
    }
  ],
  "bytecode": "0x608060405234801561001057600080fd5b506124c6806100206000396000f3fe6080604052600436106100555760003560e01c80631b5ab6dc1461005a5780632da96d73146100855780634c619f89146100b057806397a0fd3e146100cc578063d75c21a1146100f7578063f4c714b414610120575b600080fd5b34801561006657600080fd5b5061006f610161565b60405161007c91906119e9565b60405180910390f35b34801561009157600080fd5b5061009a610702565b6040516100a791906119e9565b60405180910390f35b6100ca60048036038101906100c59190611a4b565b61097d565b005b3480156100d857600080fd5b506100e1610e44565b6040516100ee91906119e9565b60405180910390f35b34801561010357600080fd5b5061011e60048036038101906101199190611bad565b611266565b005b34801561012c57600080fd5b5061014760048036038101906101429190611a4b565b61148e565b604051610158959493929190611ca0565b60405180910390f35b60606000805b6000805490508110156102a257600080828154811061018957610188611d01565b5b906000526020600020906006020160030180549050111561028f5760005b600082815481106101bb576101ba611d01565b5b90600052602060002090600602016003018054905081101561028d573373ffffffffffffffffffffffffffffffffffffffff166000838154811061020257610201611d01565b5b9060005260206000209060060201600301828154811061022557610224611d01565b5b9060005260206000200160009054906101000a900473ffffffffffffffffffffffffffffffffffffffff1673ffffffffffffffffffffffffffffffffffffffff160361027a57828061027690611d73565b9350505b808061028590611da3565b9150506101a7565b505b808061029a90611da3565b915050610167565b5060008167ffffffffffffffff16116102f0576040517f08c379a00000000000000000000000000000000000000000000000000000000081526004016102e790611e37565b60405180910390fd5b60008167ffffffffffffffff1667ffffffffffffffff81111561031657610315611a82565b5b60405190808252806020026020018201604052801561034f57816020015b61033c611604565b8152602001906001900390816103345790505b5090506000805b6000805490508110156106f857600080828154811061037857610377611d01565b5b90600052602060002090600602016003018054905011156106e55760005b600082815481106103aa576103a9611d01565b5b9060005260206000209060060201600301805490508110156106e3573373ffffffffffffffffffffffffffffffffffffffff16600083815481106103f1576103f0611d01565b5b9060005260206000209060060201600301828154811061041457610413611d01565b5b9060005260206000200160009054906101000a900473ffffffffffffffffffffffffffffffffffffffff1673ffffffffffffffffffffffffffffffffffffffff16036106d0576000828154811061046e5761046d611d01565b5b90600052602060002090600602016040518060c001604052908160008201548152602001600182015481526020016002820160009054906101000a900473ffffffffffffffffffffffffffffffffffffffff1673ffffffffffffffffffffffffffffffffffffffff1673ffffffffffffffffffffffffffffffffffffffff1681526020016003820180548060200260200160405190810160405280929190818152602001828054801561057657602002820191906000526020600020905b8160009054906101000a900473ffffffffffffffffffffffffffffffffffffffff1673ffffffffffffffffffffffffffffffffffffffff168152602001906001019080831161052c575b5050505050815260200160048201805461058f90611e86565b80601f01602080910402602001604051908101604052809291908181526020018280546105bb90611e86565b80156106085780601f106105dd57610100808354040283529160200191610608565b820191906000526020600020905b8154815290600101906020018083116105eb57829003601f168201915b5050505050815260200160058201805461062190611e86565b80601f016020809104026020016040519081016040528092919081815260200182805461064d90611e86565b801561069a5780601f1061066f5761010080835404028352916020019161069a565b820191906000526020600020905b81548152906001019060200180831161067d57829003601f168201915b5050505050815250508484815181106106b6576106b5611d01565b5b602002602001018190525082806106cc90611da3565b9350505b80806106db90611da3565b915050610396565b505b80806106f090611da3565b915050610356565b5081935050505090565b60606000805480602002602001604051908101604052809291908181526020016000905b8282101561097457838290600052602060002090600602016040518060c001604052908160008201548152602001600182015481526020016002820160009054906101000a900473ffffffffffffffffffffffffffffffffffffffff1673ffffffffffffffffffffffffffffffffffffffff1673ffffffffffffffffffffffffffffffffffffffff1681526020016003820180548060200260200160405190810160405280929190818152602001828054801561083857602002820191906000526020600020905b8160009054906101000a900473ffffffffffffffffffffffffffffffffffffffff1673ffffffffffffffffffffffffffffffffffffffff16815260200190600101908083116107ee575b5050505050815260200160048201805461085190611e86565b80601f016020809104026020016040519081016040528092919081815260200182805461087d90611e86565b80156108ca5780601f1061089f576101008083540402835291602001916108ca565b820191906000526020600020905b8154815290600101906020018083116108ad57829003601f168201915b505050505081526020016005820180546108e390611e86565b80601f016020809104026020016040519081016040528092919081815260200182805461090f90611e86565b801561095c5780601f106109315761010080835404028352916020019161095c565b820191906000526020600020905b81548152906001019060200180831161093f57829003601f168201915b50505050508152505081526020019060010190610726565b50505050905090565b808060008054905010156109c6576040517f08c379a00000000000000000000000000000000000000000000000000000000081526004016109bd90611f03565b60405180910390fd5b81600081815481106109db576109da611d01565b5b906000526020600020906006020160020160009054906101000a900473ffffffffffffffffffffffffffffffffffffffff1673ffffffffffffffffffffffffffffffffffffffff163373ffffffffffffffffffffffffffffffffffffffff1603610a7a576040517f08c379a0000000000000000000000000000000000000000000000000000000008152600401610a7190611f6f565b60405180910390fd5b826000808281548110610a9057610a8f611d01565b5b90600052602060002090600602016003018054905011610ae5576040517f08c379a0000000000000000000000000000000000000000000000000000000008152600401610adc90611fdb565b60405180910390fd5b60006001905060005b60008381548110610b0257610b01611d01565b5b906000526020600020906006020160030180549050811015610bca573373ffffffffffffffffffffffffffffffffffffffff1660008481548110610b4957610b48611d01565b5b90600052602060002090600602016003018281548110610b6c57610b6b611d01565b5b9060005260206000200160009054906101000a900473ffffffffffffffffffffffffffffffffffffffff1673ffffffffffffffffffffffffffffffffffffffff1603610bb757600091505b8080610bc290611da3565b915050610aee565b5080610c0b576040517f08c379a0000000000000000000000000000000000000000000000000000000008152600401610c0290612047565b60405180910390fd5b6000633b9aca0034610c1d9190612067565b905060008681548110610c3357610c32611d01565b5b906000526020600020906006020160010154811015610c87576040517f08c379a0000000000000000000000000000000000000000000000000000000008152600401610c7e906120f5565b60405180910390fd5b6000808781548110610c9c57610c9b611d01565b5b906000526020600020906006020160020160009054906101000a900473ffffffffffffffffffffffffffffffffffffffff16905060008173ffffffffffffffffffffffffffffffffffffffff1634604051610cf690612146565b60006040518083038185875af1925050503d8060008114610d33576040519150601f19603f3d011682016040523d82523d6000602084013e610d38565b606091505b5050905080610d7c576040517f08c379a0000000000000000000000000000000000000000000000000000000008152600401610d73906121a7565b60405180910390fd5b60008881548110610d9057610d8f611d01565b5b9060005260206000209060060201600301339080600181540180825580915050600190039060005260206000200160009091909190916101000a81548173ffffffffffffffffffffffffffffffffffffffff021916908373ffffffffffffffffffffffffffffffffffffffff160217905550877f4cdb6e7316f82eb61432dc9e1012e5c90c4222b04c6d39247c20a7c5d3c07e0633604051610e3291906121c7565b60405180910390a25050505050505050565b60606000805b600080549050811015610ef1573373ffffffffffffffffffffffffffffffffffffffff1660008281548110610e8257610e81611d01565b5b906000526020600020906006020160020160009054906101000a900473ffffffffffffffffffffffffffffffffffffffff1673ffffffffffffffffffffffffffffffffffffffff1603610ede578180610eda90611da3565b9250505b8080610ee990611da3565b915050610e4a565b5060008167ffffffffffffffff811115610f0e57610f0d611a82565b5b604051908082528060200260200182016040528015610f4757816020015b610f34611604565b815260200190600190039081610f2c5790505b5090506000805b60008054905081101561125c573373ffffffffffffffffffffffffffffffffffffffff1660008281548110610f8657610f85611d01565b5b906000526020600020906006020160020160009054906101000a900473ffffffffffffffffffffffffffffffffffffffff1673ffffffffffffffffffffffffffffffffffffffff16036112495760008181548110610fe757610fe6611d01565b5b90600052602060002090600602016040518060c001604052908160008201548152602001600182015481526020016002820160009054906101000a900473ffffffffffffffffffffffffffffffffffffffff1673ffffffffffffffffffffffffffffffffffffffff1673ffffffffffffffffffffffffffffffffffffffff168152602001600382018054806020026020016040519081016040528092919081815260200182805480156110ef57602002820191906000526020600020905b8160009054906101000a900473ffffffffffffffffffffffffffffffffffffffff1673ffffffffffffffffffffffffffffffffffffffff16815260200190600101908083116110a5575b5050505050815260200160048201805461110890611e86565b80601f016020809104026020016040519081016040528092919081815260200182805461113490611e86565b80156111815780601f1061115657610100808354040283529160200191611181565b820191906000526020600020905b81548152906001019060200180831161116457829003601f168201915b5050505050815260200160058201805461119a90611e86565b80601f01602080910402602001604051908101604052809291908181526020018280546111c690611e86565b80156112135780601f106111e857610100808354040283529160200191611213565b820191906000526020600020905b8154815290600101906020018083116111f657829003601f168201915b50505050508152505083838151811061122f5761122e611d01565b5b6020026020010181905250818061124590611da3565b9250505b808061125490611da3565b915050610f4e565b5081935050505090565b61126e611604565b6000805490508160000181815250508281602001818152505033816040019073ffffffffffffffffffffffffffffffffffffffff16908173ffffffffffffffffffffffffffffffffffffffff1681525050838160800181905250818160a001819052506000600167ffffffffffffffff8111156112ee576112ed611a82565b5b60405190808252806020026020018201604052801561131c5781602001602082028036833780820191505090505b509050338160008151811061133457611333611d01565b5b602002602001019073ffffffffffffffffffffffffffffffffffffffff16908173ffffffffffffffffffffffffffffffffffffffff16815250508082606001819052506000829080600181540180825580915050600190039060005260206000209060060201600090919091909150600082015181600001556020820151816001015560408201518160020160006101000a81548173ffffffffffffffffffffffffffffffffffffffff021916908373ffffffffffffffffffffffffffffffffffffffff160217905550606082015181600301908051906020019061141a929190611650565b506080820151816004019081611430919061238e565b5060a0820151816005019081611446919061238e565b50505081600001517f2fe849cb615f97d808fcd3fcddc557d252e861ea32d9c7455d384de86380ec7a868660405161147f929190612460565b60405180910390a25050505050565b6000818154811061149e57600080fd5b90600052602060002090600602016000915090508060000154908060010154908060020160009054906101000a900473ffffffffffffffffffffffffffffffffffffffff16908060040180546114f390611e86565b80601f016020809104026020016040519081016040528092919081815260200182805461151f90611e86565b801561156c5780601f106115415761010080835404028352916020019161156c565b820191906000526020600020905b81548152906001019060200180831161154f57829003601f168201915b50505050509080600501805461158190611e86565b80601f01602080910402602001604051908101604052809291908181526020018280546115ad90611e86565b80156115fa5780601f106115cf576101008083540402835291602001916115fa565b820191906000526020600020905b8154815290600101906020018083116115dd57829003601f168201915b5050505050905085565b6040518060c001604052806000815260200160008152602001600073ffffffffffffffffffffffffffffffffffffffff1681526020016060815260200160608152602001606081525090565b8280548282559060005260206000209081019282156116c9579160200282015b828111156116c85782518260006101000a81548173ffffffffffffffffffffffffffffffffffffffff021916908373ffffffffffffffffffffffffffffffffffffffff16021790555091602001919060010190611670565b5b5090506116d691906116da565b5090565b5b808211156116f35760008160009055506001016116db565b5090565b600081519050919050565b600082825260208201905092915050565b6000819050602082019050919050565b6000819050919050565b61173681611723565b82525050565b600073ffffffffffffffffffffffffffffffffffffffff82169050919050565b60006117678261173c565b9050919050565b6117778161175c565b82525050565b600081519050919050565b600082825260208201905092915050565b6000819050602082019050919050565b60006117b5838361176e565b60208301905092915050565b6000602082019050919050565b60006117d98261177d565b6117e38185611788565b93506117ee83611799565b8060005b8381101561181f57815161180688826117a9565b9750611811836117c1565b9250506001810190506117f2565b5085935050505092915050565b600081519050919050565b600082825260208201905092915050565b60005b8381101561186657808201518184015260208101905061184b565b60008484015250505050565b6000601f19601f8301169050919050565b600061188e8261182c565b6118988185611837565b93506118a8818560208601611848565b6118b181611872565b840191505092915050565b600060c0830160008301516118d4600086018261172d565b5060208301516118e7602086018261172d565b5060408301516118fa604086018261176e565b506060830151848203606086015261191282826117ce565b9150506080830151848203608086015261192c8282611883565b91505060a083015184820360a08601526119468282611883565b9150508091505092915050565b600061195f83836118bc565b905092915050565b6000602082019050919050565b600061197f826116f7565b6119898185611702565b93508360208202850161199b85611713565b8060005b858110156119d757848403895281516119b88582611953565b94506119c383611967565b925060208a0199505060018101905061199f565b50829750879550505050505092915050565b60006020820190508181036000830152611a038184611974565b905092915050565b6000604051905090565b600080fd5b600080fd5b611a2881611723565b8114611a3357600080fd5b50565b600081359050611a4581611a1f565b92915050565b600060208284031215611a6157611a60611a15565b5b6000611a6f84828501611a36565b91505092915050565b600080fd5b600080fd5b7f4e487b7100000000000000000000000000000000000000000000000000000000600052604160045260246000fd5b611aba82611872565b810181811067ffffffffffffffff82111715611ad957611ad8611a82565b5b80604052505050565b6000611aec611a0b565b9050611af88282611ab1565b919050565b600067ffffffffffffffff821115611b1857611b17611a82565b5b611b2182611872565b9050602081019050919050565b82818337600083830152505050565b6000611b50611b4b84611afd565b611ae2565b905082815260208101848484011115611b6c57611b6b611a7d565b5b611b77848285611b2e565b509392505050565b600082601f830112611b9457611b93611a78565b5b8135611ba4848260208601611b3d565b91505092915050565b600080600060608486031215611bc657611bc5611a15565b5b600084013567ffffffffffffffff811115611be457611be3611a1a565b5b611bf086828701611b7f565b9350506020611c0186828701611a36565b925050604084013567ffffffffffffffff811115611c2257611c21611a1a565b5b611c2e86828701611b7f565b9150509250925092565b611c4181611723565b82525050565b611c508161175c565b82525050565b600082825260208201905092915050565b6000611c728261182c565b611c7c8185611c56565b9350611c8c818560208601611848565b611c9581611872565b840191505092915050565b600060a082019050611cb56000830188611c38565b611cc26020830187611c38565b611ccf6040830186611c47565b8181036060830152611ce18185611c67565b90508181036080830152611cf58184611c67565b90509695505050505050565b7f4e487b7100000000000000000000000000000000000000000000000000000000600052603260045260246000fd5b7f4e487b7100000000000000000000000000000000000000000000000000000000600052601160045260246000fd5b600067ffffffffffffffff82169050919050565b6000611d7e82611d5f565b915067ffffffffffffffff8203611d9857611d97611d30565b5b600182019050919050565b6000611dae82611723565b91507fffffffffffffffffffffffffffffffffffffffffffffffffffffffffffffffff8203611de057611ddf611d30565b5b600182019050919050565b7f596f7520626f75676874206e6f2066696c657300000000000000000000000000600082015250565b6000611e21601383611c56565b9150611e2c82611deb565b602082019050919050565b60006020820190508181036000830152611e5081611e14565b9050919050565b7f4e487b7100000000000000000000000000000000000000000000000000000000600052602260045260246000fd5b60006002820490506001821680611e9e57607f821691505b602082108103611eb157611eb0611e57565b5b50919050565b7f5468652066696c6520646f6573206e6f74206578697374000000000000000000600082015250565b6000611eed601783611c56565b9150611ef882611eb7565b602082019050919050565b60006020820190508181036000830152611f1c81611ee0565b9050919050565b7f596f75206172652074686520617574686f72206f6620746869732066696c6500600082015250565b6000611f59601f83611c56565b9150611f6482611f23565b602082019050919050565b60006020820190508181036000830152611f8881611f4c565b9050919050565b7f5468652066696c6520686173206e6f2062757965727300000000000000000000600082015250565b6000611fc5601683611c56565b9150611fd082611f8f565b602082019050919050565b60006020820190508181036000830152611ff481611fb8565b9050919050565b7f596f7520616c7265616479206f776e20746869732066696c6500000000000000600082015250565b6000612031601983611c56565b915061203c82611ffb565b602082019050919050565b6000602082019050818103600083015261206081612024565b9050919050565b600061207282611723565b915061207d83611723565b925082820261208b81611723565b915082820484148315176120a2576120a1611d30565b5b5092915050565b7f4e6f7420656e6f7567682066756e647300000000000000000000000000000000600082015250565b60006120df601083611c56565b91506120ea826120a9565b602082019050919050565b6000602082019050818103600083015261210e816120d2565b9050919050565b600081905092915050565b50565b6000612130600083612115565b915061213b82612120565b600082019050919050565b600061215182612123565b9150819050919050565b7f4661696c656420746f2073656e64204574686572000000000000000000000000600082015250565b6000612191601483611c56565b915061219c8261215b565b602082019050919050565b600060208201905081810360008301526121c081612184565b9050919050565b60006020820190506121dc6000830184611c47565b92915050565b60008190508160005260206000209050919050565b60006020601f8301049050919050565b600082821b905092915050565b6000600883026122447fffffffffffffffffffffffffffffffffffffffffffffffffffffffffffffffff82612207565b61224e8683612207565b95508019841693508086168417925050509392505050565b6000819050919050565b600061228b61228661228184611723565b612266565b611723565b9050919050565b6000819050919050565b6122a583612270565b6122b96122b182612292565b848454612214565b825550505050565b600090565b6122ce6122c1565b6122d981848461229c565b505050565b5b818110156122fd576122f26000826122c6565b6001810190506122df565b5050565b601f82111561234257612313816121e2565b61231c846121f7565b8101602085101561232b578190505b61233f612337856121f7565b8301826122de565b50505b505050565b600082821c905092915050565b600061236560001984600802612347565b1980831691505092915050565b600061237e8383612354565b9150826002028217905092915050565b6123978261182c565b67ffffffffffffffff8111156123b0576123af611a82565b5b6123ba8254611e86565b6123c5828285612301565b600060209050601f8311600181146123f857600084156123e6578287015190505b6123f08582612372565b865550612458565b601f198416612406866121e2565b60005b8281101561242e57848901518255600182019150602085019450602081019050612409565b8683101561244b5784890151612447601f891682612354565b8355505b6001600288020188555050505b505050505050565b6000604082019050818103600083015261247a8185611c67565b90506124896020830184611c38565b939250505056fea2646970667358221220a1fa07d3323a74ec2b4ad20b295b370478c83f7a519eede2ecb15370a54325e064736f6c63430008140033",
  "linkReferences": {},
  "deployedLinkReferences": {}
}